:101303008F58E558D39400400A755920D559FD15D7
:041313005880EF22ED
:100E7E00E4F55B75B0FE85B05A535AF0E55A64F04E
:100E8E0060407F0A121303E55A64F0603585B05A4C
:100E9E00E55A2482601B24C0601224E0600924F00D
:100EAE007012755B09800D755B0A8008755B0B808F
:100EBE0003755B0CE55A64F0600885B05A535AF01E
:100ECE0080F275B0FD85B05A535AF0E55A64F06061
:100EDE00407F0A121303E55A64F0603585B05AE577
:100EEE005A2483601B24C0601224E0600924F07031
:100EFE0012755B01800D755B028008755B038003C4
:100F0E00755B04E55A64F0600885B05A535AF08058
:100F1E00F275B0FB85B05A535AF0E55A64F0604052
:100F2E007F0A121303E55A64F0603585B05AE55A0C
:100F3E002485601B24C0601224E0600924F0701226
:100F4E00755B05800D755B068008755B0780037504
:100F5E005B08E55A64F0600885B05A535AF080F287
:100F6E0075B0F785B05A535AF0E55A64F060337F86
:100F7E000A121303E55A64F0602885B05AE55A2424
:100F8E0089600E24C0600A24E0600624F07005809B
:100F9E0000755B10E55A64F0600885B05A535AF03C
:070FAE0080F2AF5B7E002220
:1012C20020200F8098B0C6DAEAF5FDFFFDF5EADAD4
:1012D200C6B09880674F3925150A0200020A152503
:0312E200394F671A
:1010E20012132A1213177590FEE4F557F55675552B
:1010F200A0755440750907750AD0AE09AF0AAB074F
:10110200AA06C39BFFE49AFE74019400FDE49400D6
:10111200FCE4FB7A01F9F812123CAE02AF038E51E5
:101122008F52AE09AF0AAB07AA06E4C39BFFE49A4B
:10113200FE74019400FDE49400FCE4FB7A01F9F8EA
:1011420012123C8E4F8F507BFF7A1179F78B0B8AEC
:061152000C890D020C00E7
:100CD4001210E2120E7E8F0EE50E14B40C004003C7
:100CE400020DBD900CF575F003A4C58325F0C583F2
:100CF40073020D4A020D52020D69020D8D020D4E52
:100D0400020D5C020D7B020DA2020D1C020D2802D5
:100D14000D3F020D34020DBD750BFF750C11750DE1
:100D2400F7020DBD750BFF750C12750D80020DBD1C
:100D3400750BFF750C11750DAA807E750BFF750C74
:100D44000F750DB5807374E48006741C800C74F9FF
:100D5400250AF50A74FF80077407250AF50AE435A5
:100D640009F5098054AF57AE56AD55AC547BCD7AD6
:100D7400CC79CC783D8022AF57AE56AD55AC547B80
:100D8400CD7ACC79CC783D8025AF57AE56AD55ACF5
:100D9400547B0A7AD77923783C1208078013AF571B
:100DA400AE56AD55AC547B0A7AD77923783C1208F9
:100DB400038F578E568D558C54E4FFFEFDFCAB57C4
:100DC400AA56A955A854120A9E500C7557CD7556AB
:100DD400CC7555CC75543DE4FFFE7DA07C40AB57EB
:100DE400AA56A955A854120A9E600D400BE4F55763
:100DF400F5567555A0755440C3E50A94FBE509946E
:100E0400005006750900750AFBAE09AF0AE4FCFD43
:100E14007BFE7AFFF9F8C3120BEA50067509FF75D9
:100E24000AFEAE09AF0AAB07AA06E4C39BFFE49A25
:100E3400FE74019400FDE49400FCE4FB7A01F9F8EB
:100E440012123CAE02AF038E518F52AE09AF0AAB01
:100E540007AA06E4C39BFFE49AFE74019400FDE430
:100E64009400FCE4FB7A01F9F812123C8E4F8F5087
:0A0E7400AA0CA90D120C00020CD705
:03000B0002115887
:10115800C0E0C0F0C083C082C0D075D000C000C05D
:1011680001C002C003C004C005C006C00785528A7A
:1011780085508C0508E508B42003750800742F25F0
:1011880008F8E6FF121352D007D006D005D004D0D5
:1011980003D002D001D000D0D0D082D083D0F0D0FC
:0211A800E03233
:1011AA00E4F553E4FBFA79A07840AF57AE56AD5553
:1011BA00AC54120A01C004C005C006C007AF537E72
:1011CA00007C007D07120BCAAC06AD07E4120B10B7
:1011DA00D003D002D001D0001208F8120B49742FA4
:0D11EA002553F8A6070553E553B420B7229E
:1011F700E4F553E4FBFA79A07840AF57AE56AD5506
:10120700AC54120A01C004C005C006C007740F25FC
:1012170053F8E6FCE4120B15D003D002D001D0003E
:101227001208F8120B49742F2553F8A6070553E542
:0512370053B420BF22AA
:10128000E4F553E4FBFA79A07840AF57AE56AD557C
:10129000AC54120A01E4FBFA797F78431208F81281
:1012A0000B49742F2553F8A6070553E553B410D303
:1012B000755310742F2553F8E4F60553E553B42005
:0212C000F22218
:100FB500E4F553E4FBFA79A07840AF57AE56AD554A
:100FC500AC54120A01C004C005C006C007E553753C
:100FD500F00EA42410FDE435F0FCE4120B10D00350
:100FE500D002D001D0001208F8120B49742F2553F6
:100FF500F8A6070553E553B410B9755310E4FBFA89
:1010050079A07840AF57AE56AD55AC54120A01E4FD
:10101500FBFA797F78431208F8C004C005C006C002
:1010250007741F2553F8E6FCE4120B15A804A9055F
:10103500AA06AB07D007D006D005D00412080312C4
:101045000B49742F2553F8A6070553E553B420AD76
:011055002278
:0C133C00D2A000D2A100C2A000C2A122D9
:0A134800C2A000D2A100C2A1002241
:1012E6007E08AD07C2A100ED30E704D2A08002C29D
:0C12F600A0D2A1EF25E0FDFFDEE8C2A1C0
:0113020022C8
:1013170012133C7F901212E61213487F401212E616
:0313270002134866
:061352001212E60213482E
:10132A00758901758A05758CFFC28DD2A9D2AFD293
:02133A008C2203
:10080000020BB5E86480F8E933E83360110460F066
:10081000ED33EC337009E8FCE9FDEAFEEBFF22045E
:1008200060DED3EB9FEA9EE99DE8C2E78CF0C2F759
:1008300095F0400CE8CCF8E9CDF9EACEFAEBCFFB25
:10084000120B8085D0F05804700320D5B3E80470F3
:10085000075002B2D5020BBF92D5EC0460F7E4CC8E
:10086000C0E0C398F8603B94186008400DD0E0FBEE
:10087000020B97E4FBFAC9FC8028E830E406E4C9DF
:10088000FBE4CAFCE830E305E4C9CACBFCE8540742
:100890006010F8C3E913F9EA13FAEB13FBEC13FC4D
:1008A000D8F130F52FC3E49CFCEF9BFFEE9AFEEDF0
:1008B00099FDD0E0FBEF4E4D4C701222DB03020B92
:1008C000BCEC2CFCEF33FFEE33FEED33FDED30E7F7
:1008D000EB020B97EF2BFFEE3AFEED39FDD0E0FB7C
:1008E00050130BBB0003020BBFED13FDEE13FEEF25
:0808F00013FFEC13FC020B974F
:1008F800EC4D6011E8497017ED33EC3304600DE4FA
:10090800FCFFFEFD22E933E8330470F8020BB51250
:100918000B8058046009E4CC248150062850090251
:100928000BBF284003020BBCC0E0EB4A7044B980FF
:1009380006D0E0FB020BABEF4E701CBD8008EBFF4E
:10094800EAFEE9FD80EBE98DF0A4FEE5F00209E19D
:10095800E9CDF9EAFEEBFFEF89F0A4FCE5F0CE89DA
:10096800F0A42EFFE435F0CD89F0A42DFEE435F097
:100978008067EF4E7005BD80D780C3EF8BF0A4ACC5
:10098800F0EE8BF0A42CFCE435F0F8EF8AF0A42C00
:10099800E5F038FCE433CB8DF0A42CFCE5F03BF813
:1009A800EE8AF0A42CFCE5F038F8E433CF89F0A403
:1009B8002CFCE5F038CF3400CE89F0A42FFFE5F009
:1009C8003EFEE433C98DF0A42EFEE5F039CD8AF061
:1009D800A42FFFE5F03EFEE43DFD33D0E0FB5007D9
:1009E8000BBB000F020BBFEC2CFCEF33FFEE33FE0A
:0609F800ED33FD020B9738
:1009FE00020BBFEC5D046005E859047003020BB5F1
:100A0E00120B80580460F6EC4860F2EC7004FDFEA8
:100A1E00FF22C860DB2481C85009C39860025006CB
:100A2E00020BBC9850CAF582E9294B4A7005AB827D
:100A3E00020BAB75F0007C1A7880C3EF9BEE9AED3B
:100A4E0099400DC3EF9BFFEE9AFEED99FDE842F043
:100A5E00DC23ACF0D0E0FFD0E0FED0E0FDAB822096
:100A6E00E7101BEB60BAEC2CFCEF33FFEE33FEED20
:100A7E0033FD020B97E803F830E705C0F075F00080
:100A8E00EF2FFFEE33FEED33FD40B830E7C280AA04
:100A9E0074F8CC6480CCC86480C8F582046043C30B
:100AAE00EB9FF5F0EA9E42F0E99D42F0E89C45F09E
:100ABE0060305018E5825FFFE582F42B5582FB50C3
:100ACE00210ABA001D09B90019088016E5825BFBE0
:100ADE00E582F42F5582FF50090EBE00050DBD00B4
:100AEE00010CC3EB9FF5F0EA9E42F0E99D42F0E85F
:0D0AFE009C45F06007CC4820E701B3EC22D6
:100B0B0075F020800E75F010800575F0087D007E65
:100B1B00007F003392D530D503120BDCEC33401041
:100B2B00EF33FFEE33FEED33FDEC33FCD5F0ED226E
:0E0B3B00E5F0247EA2D513CC92E7CDCEFF22AA
:100B4900EDD2E7CD33EC3392D524814006E4FFFEA4
:100B5900FDFC22FCE4CFCECDCC24E0501174FF8003
:100B6900EDC3CC13CCCD13CDCE13CECF13CF0470A0
:070B7900F030D5DE020BDCB9
:100B8000E9D2E7C933E833F892D5EDD2E7CD33ECBB
:070B900033FC5002B2D52234
:100B9700EC30E7100FBF000C0EBE00080DBD0004BF
:100BA7000BEB6014A2D5EB13FCED92E7FD2274FF6B
:100BB700FCFDFEFF22E480F8A2D574FF13FC7D80C4
:030BC700E480EFD8
:0300000002105695
:0C105600787FE4F6D8FD75815B02109DE8
:100BCA00EF8DF0A4A8F0CF8CF0A428CE8DF0A42E3F
:020BDA00FE22F9
:10123C00C2D5E830E70FB2D5E4C39BFBE49AFAE4DD
:10124C0099F9E498F8EC30E717B2D5121272120C37
:10125C0042E4C39BFBE49AFAE499F9E498F880031E
:10126C00120C4230D50DE4C39FFFE49EFEE49DFDBD
:04127C00E49CFC22D0
:0E0BDC00C3E49FFFE49EFEE49DFDE49CFC222A
:100BEA00EB9FF5F0EA9E42F0E99D42F0EC6480C882
:060BFA0064809845F02222
:060C00008A838982E4737F
:10106200020CD4E493A3F8E493A34003F68001F2C4
:1010720008DFF48029E493A3F85407240CC8C3338F
:10108200C4540F4420C8834004F456800146F6DF5E
:10109200E4800B01020408102040809012C2E47E1A
:1010A200019360BCA3FF543F30E509541FFEE49353
:1010B200A360010ECF54C025E060A840B8E493A31A
:1010C200FAE493A3F8E493A3C8C582C8CAC583CA45
:1010D200F0A3C8C582C8CAC583CADFE9DEE780BEFD
:0112E5000008
:100C060075F008758200EF2FFFEE33FECD33CDCCA5
:100C160033CCC58233C5829BED9AEC99E582984028
:100C26000CF582EE9BFEED9AFDEC99FC0FD5F0D605
:100C3600E4CEFBE4CDFAE4CCF9A88222B800C1B92F
:100C46000059BA002DEC8BF084CFCECDFCE5F0CB6D
:100C5600F97818EF2FFFEE33FEED33FDEC33FCEBA6
:100C660033FB10D703994004EB99FB0FD8E5E4F961
:100C7600FA227818EF2FFFEE33FEED33FDEC33FC4E
:100C8600C933C910D7059BE99A4007EC9BFCE99A42
:100C9600F90FD8E0E4C9FAE4CCFB2275F010EF2F87
:100CA600FFEE33FEED33FDCC33CCC833C810D70787
:100CB6009BEC9AE899400AED9BFDEC9AFCE899F8C2
:0E0CC6000FD5F0DAE4CDFBE4CCFAE4C8F92255
:00000001FF
