:101315008F08E508D39400400A750920D509FD1505
:041325000880EF222B
:100E8C00E4F50B75B0FE85B00A530AF0E50A64F080
:100E9C0060407F0A121315E50A64F0603585B00ACC
:100EAC00E50A2482601B24C0601224E0600924F04F
:100EBC007012750B09800D750B0A8008750B0B8071
:100ECC0003750B0CE50A64F0600885B00A530AF050
:100EDC0080F275B0FD85B00A530AF0E50A64F06043
:100EEC00407F0A121315E50A64F0603585B00AE5F7
:100EFC000A2483601B24C0601224E0600924F07073
:100F0C0012750B01800D750B028008750B038003A5
:100F1C00750B04E50A64F0600885B00A530AF0808A
:100F2C00F275B0FB85B00A530AF0E50A64F0604034
:100F3C007F0A121315E50A64F0603585B00AE50ADC
:100F4C002485601B24C0601224E0600924F0701218
:100F5C00750B05800D750B068008750B07800375E6
:100F6C000B08E50A64F0600885B00A530AF080F2B9
:100F7C0075B0F785B00A530AF0E50A64F060337F68
:100F8C000A121315E50A64F0602885B00AE50A24F4
:100F9C0089600E24C0600A24E0600624F07005808D
:100FAC0000750B10E50A64F0600885B00A530AF06E
:070FBC0080F2AF0B7E002262
:1012D4002020288098B0C6DAEAF5FDFFFDF5EADAA9
:1012E400C6B09880674F3925150A0200020A1525F1
:0312F400394F6708
:1010F0007590FEE4F570F56F756EA0756D40D200C9
:10110000F5227523FBAE22AF23AB07AA06C39BFFD4
:10111000E49AFE74019400FDE49400FCE4FB7A017F
:10112000F9F812124EAE02AF038E6A8F6BAE22AF89
:1011300023AB07AA06E4C39BFFE49AFE7401940064
:10114000FDE49400FCE4FB7A01F9F812124E8E687B
:101150008F697BFF7A1279098B248A258926120CE4
:071160000012132902133CE9
:100CD4001210F0120E8C8F27E52714B41000400375
:100CE400020DCB900CF575F003A4C58325F0C583E4
:100CF40073020D58020D60020D77020D9B020D5C0C
:100D0400020D6A020D89020DB0020D2A020D36028F
:100D14000D4D020D42020DCB020DCB020DCB020D87
:100D240025B200020DCB7524FF7525127526090224
:100D34000DCB7524FF752512752692020DCB7524F3
:100D4400FF7525117526BC807E7524FF75250F75EA
:100D540026C3807374E48006741C800C74F9252304
:100D6400F52374FF800774072523F523E43522F562
:100D7400228054AF70AE6FAD6EAC6D7BCD7ACC7902
:100D8400CC783D8022AF70AE6FAD6EAC6D7BCD7A0A
:100D9400CC79CC783D8025AF70AE6FAD6EAC6D7BF9
:100DA4000A7AD77923783C1208078013AF70AE6FA4
:100DB400AD6EAC6D7B0A7AD77923783C1208038F29
:100DC400708E6F8D6E8C6DE4FFFEFDFCAB70AA6FB0
:100DD400A96EA86D120A9E500C7570CD756FCC75F6
:100DE4006ECC756D3DE4FFFE7DA07C40AB70AA6FB8
:100DF400A96EA86D120A9E600D400BE4F570F56FA4
:100E0400756EA0756D40C3E52394FBE522940050F4
:100E1400067522007523FBAE22AF23E4FCFD7BFEA6
:100E24007AFFF9F8C3120BEA50067522FF7523FE08
:100E3400AE22AF23AB07AA06E4C39BFFE49AFE7479
:100E4400019400FDE49400FCE4FB7A01F9F8121229
:100E54004EAE02AF038E6A8F6BAE22AF23AB07AAEE
:100E640006E4C39BFFE49AFE74019400FDE494003D
:100E7400FCE4FB7A01F9F812124E8E688F69AA25F8
:080E8400A926120C00020CD794
:03000B0002116778
:10116700C0E0C0F0C083C082C0D075D000C000C04E
:1011770001C002C003C004C005C006C007856B8A52
:1011870085698C3000140521E521B4200375210001
:1011970074482521F8E6FF121364D007D006D0055E
:1011A700D004D003D002D001D000D0D0D082D083D9
:0511B700D0F0D0E03291
:1011BC00E4F56CE4FBFA79A07840AF70AE6FAD6EDD
:1011CC00AC6D120A01C004C005C006C007AF6C7E2E
:1011DC00007C007D07120BCAAC06AD07E4120B10A5
:1011EC00D003D002D001D0001208F8120B49744879
:0D11FC00256CF8A607056CE56CB420B72241
:10120900E4F56CE4FBFA79A07840AF70AE6FAD6E8F
:10121900AC6D120A01C004C005C006C007742825B8
:101229006CF8E6FCE4120B15D003D002D001D00013
:101239001208F8120B497448256CF8A607056CE5E5
:051249006CB420BF227F
:10129200E4F56CE4FBFA79A07840AF70AE6FAD6E06
:1012A200AC6D120A01E4FBFA797F78431208F81256
:1012B2000B497448256CF8A607056CE56CB410D38D
:1012C200756C107448256CF8E4F6056CE56CB42076
:0212D200F22206
:100FC300E4F56CE4FBFA79A07840AF70AE6FAD6ED8
:100FD300AC6D120A01C004C005C006C007E56C75FC
:100FE300F00EA42410FDE435F0FCE4120B10D00342
:100FF300D002D001D0001208F8120B497448256CB6
:10100300F8A607056CE56CB410B9756C10E4FBFA2F
:1010130079A07840AF70AE6FAD6EAC6D120A01E48B
:10102300FBFA797F78431208F8C004C005C006C0F4
:10103300077438256CF8E6FCE4120B15A804A9051F
:10104300AA06AB07D007D006D005D00412080312B6
:101053000B497448256CF8A607056CE56CB420AD04
:01106300226A
:0C134E00D2A000D2A100C2A000C2A122C7
:0A135A00C2A000D2A100C2A100222F
:1012F8007E08AD07C2A100ED30E704D2A08002C28B
:0C130800A0D2A1EF25E0FDFFDEE8C2A1AD
:0113140022B6
:1013290012134E7F901212F812135A7F401212F8BC
:0313390002135A42
:061364001212F802135AF8
:10133C00758901758A05758CFFC28DD2A9D2AFD281
:02134C008C22F1
:10080000020BB5E86480F8E933E83360110460F066
:10081000ED33EC337009E8FCE9FDEAFEEBFF22045E
:1008200060DED3EB9FEA9EE99DE8C2E78CF0C2F759
:1008300095F0400CE8CCF8E9CDF9EACEFAEBCFFB25
:10084000120B8085D0F05804700320D5B3E80470F3
:10085000075002B2D5020BBF92D5EC0460F7E4CC8E
:10086000C0E0C398F8603B94186008400DD0E0FBEE
:10087000020B97E4FBFAC9FC8028E830E406E4C9DF
:10088000FBE4CAFCE830E305E4C9CACBFCE8540742
:100890006010F8C3E913F9EA13FAEB13FBEC13FC4D
:1008A000D8F130F52FC3E49CFCEF9BFFEE9AFEEDF0
:1008B00099FDD0E0FBEF4E4D4C701222DB03020B92
:1008C000BCEC2CFCEF33FFEE33FEED33FDED30E7F7
:1008D000EB020B97EF2BFFEE3AFEED39FDD0E0FB7C
:1008E00050130BBB0003020BBFED13FDEE13FEEF25
:0808F00013FFEC13FC020B974F
:1008F800EC4D6011E8497017ED33EC3304600DE4FA
:10090800FCFFFEFD22E933E8330470F8020BB51250
:100918000B8058046009E4CC248150062850090251
:100928000BBF284003020BBCC0E0EB4A7044B980FF
:1009380006D0E0FB020BABEF4E701CBD8008EBFF4E
:10094800EAFEE9FD80EBE98DF0A4FEE5F00209E19D
:10095800E9CDF9EAFEEBFFEF89F0A4FCE5F0CE89DA
:10096800F0A42EFFE435F0CD89F0A42DFEE435F097
:100978008067EF4E7005BD80D780C3EF8BF0A4ACC5
:10098800F0EE8BF0A42CFCE435F0F8EF8AF0A42C00
:10099800E5F038FCE433CB8DF0A42CFCE5F03BF813
:1009A800EE8AF0A42CFCE5F038F8E433CF89F0A403
:1009B8002CFCE5F038CF3400CE89F0A42FFFE5F009
:1009C8003EFEE433C98DF0A42EFEE5F039CD8AF061
:1009D800A42FFFE5F03EFEE43DFD33D0E0FB5007D9
:1009E8000BBB000F020BBFEC2CFCEF33FFEE33FE0A
:0609F800ED33FD020B9738
:1009FE00020BBFEC5D046005E859047003020BB5F1
:100A0E00120B80580460F6EC4860F2EC7004FDFEA8
:100A1E00FF22C860DB2481C85009C39860025006CB
:100A2E00020BBC9850CAF582E9294B4A7005AB827D
:100A3E00020BAB75F0007C1A7880C3EF9BEE9AED3B
:100A4E0099400DC3EF9BFFEE9AFEED99FDE842F043
:100A5E00DC23ACF0D0E0FFD0E0FED0E0FDAB822096
:100A6E00E7101BEB60BAEC2CFCEF33FFEE33FEED20
:100A7E0033FD020B97E803F830E705C0F075F00080
:100A8E00EF2FFFEE33FEED33FD40B830E7C280AA04
:100A9E0074F8CC6480CCC86480C8F582046043C30B
:100AAE00EB9FF5F0EA9E42F0E99D42F0E89C45F09E
:100ABE0060305018E5825FFFE582F42B5582FB50C3
:100ACE00210ABA001D09B90019088016E5825BFBE0
:100ADE00E582F42F5582FF50090EBE00050DBD00B4
:100AEE00010CC3EB9FF5F0EA9E42F0E99D42F0E85F
:0D0AFE009C45F06007CC4820E701B3EC22D6
:100B0B0075F020800E75F010800575F0087D007E65
:100B1B00007F003392D530D503120BDCEC33401041
:100B2B00EF33FFEE33FEED33FDEC33FCD5F0ED226E
:0E0B3B00E5F0247EA2D513CC92E7CDCEFF22AA
:100B4900EDD2E7CD33EC3392D524814006E4FFFEA4
:100B5900FDFC22FCE4CFCECDCC24E0501174FF8003
:100B6900EDC3CC13CCCD13CDCE13CECF13CF0470A0
:070B7900F030D5DE020BDCB9
:100B8000E9D2E7C933E833F892D5EDD2E7CD33ECBB
:070B900033FC5002B2D52234
:100B9700EC30E7100FBF000C0EBE00080DBD0004BF
:100BA7000BEB6014A2D5EB13FCED92E7FD2274FF6B
:100BB700FCFDFEFF22E480F8A2D574FF13FC7D80C4
:030BC700E480EFD8
:0300000002106487
:0C106400787FE4F6D8FD7581700210ABB7
:100BCA00EF8DF0A4A8F0CF8CF0A428CE8DF0A42E3F
:020BDA00FE22F9
:10124E00C2D5E830E70FB2D5E4C39BFBE49AFAE4CB
:10125E0099F9E498F8EC30E717B2D5121284120C13
:10126E0042E4C39BFBE49AFAE499F9E498F880030C
:10127E00120C4230D50DE4C39FFFE49EFEE49DFDAB
:04128E00E49CFC22BE
:0E0BDC00C3E49FFFE49EFEE49DFDE49CFC222A
:100BEA00EB9FF5F0EA9E42F0E99D42F0EC6480C882
:060BFA0064809845F02222
:060C00008A838982E4737F
:10107000020CD4E493A3F8E493A34003F68001F2B6
:1010800008DFF48029E493A3F85407240CC8C33381
:10109000C4540F4420C8834004F456800146F6DF50
:1010A000E4800B01020408102040809012D4E47EFA
:1010B000019360BCA3FF543F30E509541FFEE49345
:1010C000A360010ECF54C025E060A840B8E493A30C
:1010D000FAE493A3F8E493A3C8C582C8CAC583CA37
:1010E000F0A3C8C582C8CAC583CADFE9DEE780BEEF
:0112F70000F6
:100C060075F008758200EF2FFFEE33FECD33CDCCA5
:100C160033CCC58233C5829BED9AEC99E582984028
:100C26000CF582EE9BFEED9AFDEC99FC0FD5F0D605
:100C3600E4CEFBE4CDFAE4CCF9A88222B800C1B92F
:100C46000059BA002DEC8BF084CFCECDFCE5F0CB6D
:100C5600F97818EF2FFFEE33FEED33FDEC33FCEBA6
:100C660033FB10D703994004EB99FB0FD8E5E4F961
:100C7600FA227818EF2FFFEE33FEED33FDEC33FC4E
:100C8600C933C910D7059BE99A4007EC9BFCE99A42
:100C9600F90FD8E0E4C9FAE4CCFB2275F010EF2F87
:100CA600FFEE33FEED33FDCC33CCC833C810D70787
:100CB6009BEC9AE899400AED9BFDEC9AFCE899F8C2
:0E0CC6000FD5F0DAE4CDFBE4CCFAE4C8F92255
:00000001FF
